{
  "contractName": "LimeFactory",
  "abi": [
    {
      "anonymous": false,
      "inputs": [
        {
          "indexed": false,
          "internalType": "string",
          "name": "name",
          "type": "string"
        }
      ],
      "name": "FreshLime",
      "type": "event"
    },
    {
      "inputs": [
        {
          "internalType": "uint256",
          "name": "",
          "type": "uint256"
        }
      ],
      "name": "limes",
      "outputs": [
        {
          "internalType": "string",
          "name": "name",
          "type": "string"
        },
        {
          "internalType": "uint8",
          "name": "carbohydrates",
          "type": "uint8"
        },
        {
          "internalType": "uint8",
          "name": "fat",
          "type": "uint8"
        },
        {
          "internalType": "uint8",
          "name": "protein",
          "type": "uint8"
        }
      ],
      "stateMutability": "view",
      "type": "function"
    },
    {
      "inputs": [
        {
          "internalType": "string",
          "name": "_name",
          "type": "string"
        },
        {
          "internalType": "uint8",
          "name": "_carbohydrates",
          "type": "uint8"
        },
        {
          "internalType": "uint8",
          "name": "_fat",
          "type": "uint8"
        },
        {
          "internalType": "uint8",
          "name": "_protein",
          "type": "uint8"
        }
      ],
      "name": "createLime",
      "outputs": [],
      "stateMutability": "nonpayable",
      "type": "function"
    }
  ],
  "bytecode": "0x608060405234801561001057600080fd5b506105b5806100206000396000f3fe608060405234801561001057600080fd5b50600436106100365760003560e01c806321310ecd1461003b578063e0b6fcfc14610109575b600080fd5b6100676004803603602081101561005157600080fd5b81019080803590602001909291905050506101eb565b60405180806020018560ff1660ff1681526020018460ff1660ff1681526020018360ff1660ff168152602001828103825286818151815260200191508051906020019080838360005b838110156100cb5780820151818401526020810190506100b0565b50505050905090810190601f1680156100f85780820380516001836020036101000a031916815260200191505b509550505050505060405180910390f35b6101e96004803603608081101561011f57600080fd5b810190808035906020019064010000000081111561013c57600080fd5b82018360208201111561014e57600080fd5b8035906020019184600183028401116401000000008311171561017057600080fd5b91908080601f016020809104026020016040519081016040528093929190818152602001838380828437600081840152601f19601f820116905080830192505050505050509192919290803560ff169060200190929190803560ff169060200190929190803560ff1690602001909291905050506102e7565b005b600081815481106101f857fe5b9060005260206000209060020201600091509050806000018054600181600116156101000203166002900480601f0160208091040260200160405190810160405280929190818152602001828054600181600116156101000203166002900480156102a45780601f10610279576101008083540402835291602001916102a4565b820191906000526020600020905b81548152906001019060200180831161028757829003601f168201915b5050505050908060010160009054906101000a900460ff16908060010160019054906101000a900460ff16908060010160029054906101000a900460ff16905084565b60008360ff161415610361576040517f08c379a000000000000000000000000000000000000000000000000000000000815260040180806020018281038252601d8152602001807f54686520636172626f68796472617465732063616e6e6f74206265203000000081525060200191505060405180910390fd5b600060405180608001604052808681526020018560ff1681526020018460ff1681526020018360ff16815250908060018154018082558091505060019003906000526020600020906002020160009091909190915060008201518160000190805190602001906103d29291906104da565b5060208201518160010160006101000a81548160ff021916908360ff16021790555060408201518160010160016101000a81548160ff021916908360ff16021790555060608201518160010160026101000a81548160ff021916908360ff16021790555050507fe65ca226f7ab35846085554e9c72f162260bd2e4a6d6a752f0aacad4e0f18fe5846040518080602001828103825283818151815260200191508051906020019080838360005b8381101561049a57808201518184015260208101905061047f565b50505050905090810190601f1680156104c75780820380516001836020036101000a031916815260200191505b509250505060405180910390a150505050565b828054600181600116156101000203166002900490600052602060002090601f016020900481019282601f1061051b57805160ff1916838001178555610549565b82800160010185558215610549579182015b8281111561054857825182559160200191906001019061052d565b5b509050610556919061055a565b5090565b61057c91905b80821115610578576000816000905550600101610560565b5090565b9056fea264697066735822122016f865165f689d43daa67f1c11c81d0a47b8222e0bf4ecace54a33b9bcbe8fbf64736f6c634300060b0033",
  "source": "pragma solidity ^0.6.0;\n\ncontract LimeFactory {\n\n    event FreshLime(string name);\n\n    struct Lime {\n        string name;\n        uint8 carbohydrates;\n        uint8 fat;\n        uint8 protein;\n    }\n\n    Lime[] public limes;\n\n    function createLime(string memory _name, uint8 _carbohydrates, uint8 _fat, uint8 _protein) public {\n        require(_carbohydrates != 0, \"The carbohydrates cannot be 0\");\n        limes.push(Lime(_name, _carbohydrates, _fat, _protein));\n        emit FreshLime(_name);\n    }\n}",
  "sourcePath": "/Users/veronicac/Desktop/projects/news-buff/News_Buff_V0.1/contracts/LimeFactory.sol",
  "compiler": {
    "name": "solc",
    "version": "0.6.11+commit.5ef660b1.Emscripten.clang",
    "optimizer": false,
    "runs": 200
  },
  "schemaVersion": "2.3.3",
  "updatedAt": "2020-07-09T08:45:50.519Z"
}