{
  "contractName": "UniqueUserTokens",
  "abi": [
    {
      "inputs": [],
      "stateMutability": "nonpayable",
      "type": "constructor"
    },
    {
      "anonymous": false,
      "inputs": [
        {
          "indexed": true,
          "internalType": "address",
          "name": "owner",
          "type": "address"
        },
        {
          "indexed": true,
          "internalType": "address",
          "name": "approved",
          "type": "address"
        },
        {
          "indexed": true,
          "internalType": "uint256",
          "name": "tokenId",
          "type": "uint256"
        }
      ],
      "name": "Approval",
      "type": "event"
    },
    {
      "anonymous": false,
      "inputs": [
        {
          "indexed": true,
          "internalType": "address",
          "name": "owner",
          "type": "address"
        },
        {
          "indexed": true,
          "internalType": "address",
          "name": "operator",
          "type": "address"
        },
        {
          "indexed": false,
          "internalType": "bool",
          "name": "approved",
          "type": "bool"
        }
      ],
      "name": "ApprovalForAll",
      "type": "event"
    },
    {
      "anonymous": false,
      "inputs": [
        {
          "indexed": true,
          "internalType": "address",
          "name": "from",
          "type": "address"
        },
        {
          "indexed": true,
          "internalType": "address",
          "name": "to",
          "type": "address"
        },
        {
          "indexed": true,
          "internalType": "uint256",
          "name": "tokenId",
          "type": "uint256"
        }
      ],
      "name": "Transfer",
      "type": "event"
    },
    {
      "inputs": [
        {
          "internalType": "address",
          "name": "to",
          "type": "address"
        },
        {
          "internalType": "uint256",
          "name": "tokenId",
          "type": "uint256"
        }
      ],
      "name": "approve",
      "outputs": [],
      "stateMutability": "nonpayable",
      "type": "function"
    },
    {
      "inputs": [
        {
          "internalType": "address",
          "name": "owner",
          "type": "address"
        }
      ],
      "name": "balanceOf",
      "outputs": [
        {
          "internalType": "uint256",
          "name": "",
          "type": "uint256"
        }
      ],
      "stateMutability": "view",
      "type": "function"
    },
    {
      "inputs": [],
      "name": "baseURI",
      "outputs": [
        {
          "internalType": "string",
          "name": "",
          "type": "string"
        }
      ],
      "stateMutability": "view",
      "type": "function"
    },
    {
      "inputs": [
        {
          "internalType": "uint256",
          "name": "tokenId",
          "type": "uint256"
        }
      ],
      "name": "burn",
      "outputs": [],
      "stateMutability": "nonpayable",
      "type": "function"
    },
    {
      "inputs": [
        {
          "internalType": "uint256",
          "name": "tokenId",
          "type": "uint256"
        }
      ],
      "name": "getApproved",
      "outputs": [
        {
          "internalType": "address",
          "name": "",
          "type": "address"
        }
      ],
      "stateMutability": "view",
      "type": "function"
    },
    {
      "inputs": [
        {
          "internalType": "address",
          "name": "owner",
          "type": "address"
        },
        {
          "internalType": "address",
          "name": "operator",
          "type": "address"
        }
      ],
      "name": "isApprovedForAll",
      "outputs": [
        {
          "internalType": "bool",
          "name": "",
          "type": "bool"
        }
      ],
      "stateMutability": "view",
      "type": "function"
    },
    {
      "inputs": [],
      "name": "name",
      "outputs": [
        {
          "internalType": "string",
          "name": "",
          "type": "string"
        }
      ],
      "stateMutability": "view",
      "type": "function"
    },
    {
      "inputs": [
        {
          "internalType": "uint256",
          "name": "tokenId",
          "type": "uint256"
        }
      ],
      "name": "ownerOf",
      "outputs": [
        {
          "internalType": "address",
          "name": "",
          "type": "address"
        }
      ],
      "stateMutability": "view",
      "type": "function"
    },
    {
      "inputs": [
        {
          "internalType": "address",
          "name": "from",
          "type": "address"
        },
        {
          "internalType": "address",
          "name": "to",
          "type": "address"
        },
        {
          "internalType": "uint256",
          "name": "tokenId",
          "type": "uint256"
        }
      ],
      "name": "safeTransferFrom",
      "outputs": [],
      "stateMutability": "nonpayable",
      "type": "function"
    },
    {
      "inputs": [
        {
          "internalType": "address",
          "name": "from",
          "type": "address"
        },
        {
          "internalType": "address",
          "name": "to",
          "type": "address"
        },
        {
          "internalType": "uint256",
          "name": "tokenId",
          "type": "uint256"
        },
        {
          "internalType": "bytes",
          "name": "_data",
          "type": "bytes"
        }
      ],
      "name": "safeTransferFrom",
      "outputs": [],
      "stateMutability": "nonpayable",
      "type": "function"
    },
    {
      "inputs": [
        {
          "internalType": "address",
          "name": "operator",
          "type": "address"
        },
        {
          "internalType": "bool",
          "name": "approved",
          "type": "bool"
        }
      ],
      "name": "setApprovalForAll",
      "outputs": [],
      "stateMutability": "nonpayable",
      "type": "function"
    },
    {
      "inputs": [
        {
          "internalType": "bytes4",
          "name": "interfaceId",
          "type": "bytes4"
        }
      ],
      "name": "supportsInterface",
      "outputs": [
        {
          "internalType": "bool",
          "name": "",
          "type": "bool"
        }
      ],
      "stateMutability": "view",
      "type": "function"
    },
    {
      "inputs": [],
      "name": "symbol",
      "outputs": [
        {
          "internalType": "string",
          "name": "",
          "type": "string"
        }
      ],
      "stateMutability": "view",
      "type": "function"
    },
    {
      "inputs": [
        {
          "internalType": "uint256",
          "name": "index",
          "type": "uint256"
        }
      ],
      "name": "tokenByIndex",
      "outputs": [
        {
          "internalType": "uint256",
          "name": "",
          "type": "uint256"
        }
      ],
      "stateMutability": "view",
      "type": "function"
    },
    {
      "inputs": [
        {
          "internalType": "address",
          "name": "owner",
          "type": "address"
        },
        {
          "internalType": "uint256",
          "name": "index",
          "type": "uint256"
        }
      ],
      "name": "tokenOfOwnerByIndex",
      "outputs": [
        {
          "internalType": "uint256",
          "name": "",
          "type": "uint256"
        }
      ],
      "stateMutability": "view",
      "type": "function"
    },
    {
      "inputs": [
        {
          "internalType": "uint256",
          "name": "tokenId",
          "type": "uint256"
        }
      ],
      "name": "tokenURI",
      "outputs": [
        {
          "internalType": "string",
          "name": "",
          "type": "string"
        }
      ],
      "stateMutability": "view",
      "type": "function"
    },
    {
      "inputs": [],
      "name": "totalSupply",
      "outputs": [
        {
          "internalType": "uint256",
          "name": "",
          "type": "uint256"
        }
      ],
      "stateMutability": "view",
      "type": "function"
    },
    {
      "inputs": [
        {
          "internalType": "address",
          "name": "from",
          "type": "address"
        },
        {
          "internalType": "address",
          "name": "to",
          "type": "address"
        },
        {
          "internalType": "uint256",
          "name": "tokenId",
          "type": "uint256"
        }
      ],
      "name": "transferFrom",
      "outputs": [],
      "stateMutability": "nonpayable",
      "type": "function"
    },
    {
      "inputs": [
        {
          "internalType": "string",
          "name": "_userName",
          "type": "string"
        },
        {
          "internalType": "string",
          "name": "_threadId",
          "type": "string"
        }
      ],
      "name": "mint",
      "outputs": [],
      "stateMutability": "nonpayable",
      "type": "function"
    },
    {
      "inputs": [
        {
          "internalType": "address",
          "name": "_user",
          "type": "address"
        }
      ],
      "name": "getUserTokenInfo",
      "outputs": [
        {
          "internalType": "string",
          "name": "",
          "type": "string"
        },
        {
          "internalType": "string",
          "name": "",
          "type": "string"
        },
        {
          "internalType": "bool",
          "name": "",
          "type": "bool"
        },
        {
          "internalType": "uint256[]",
          "name": "",
          "type": "uint256[]"
        }
      ],
      "stateMutability": "view",
      "type": "function"
    },
    {
      "inputs": [
        {
          "internalType": "uint256",
          "name": "_contentId",
          "type": "uint256"
        }
      ],
      "name": "createContent",
      "outputs": [],
      "stateMutability": "nonpayable",
      "type": "function"
    }
  ],
  "bytecode": "0x60806040523480156200001157600080fd5b506040805180820182526012815271556e69717565205573657220546f6b656e7360701b6020808301919091528251808401909352600383526215555560ea1b9083015290620000716301ffc9a760e01b6001600160e01b03620000f616565b8151620000869060069060208501906200017b565b5080516200009c9060079060208401906200017b565b50620000b86380ac58cd60e01b6001600160e01b03620000f616565b620000d3635b5e139f60e01b6001600160e01b03620000f616565b620000ee63780e9d6360e01b6001600160e01b03620000f616565b505062000220565b6001600160e01b0319808216141562000156576040805162461bcd60e51b815260206004820152601c60248201527f4552433136353a20696e76616c696420696e7465726661636520696400000000604482015290519081900360640190fd5b6001600160e01b0319166000908152602081905260409020805460ff19166001179055565b828054600181600116156101000203166002900490600052602060002090601f016020900481019282601f10620001be57805160ff1916838001178555620001ee565b82800160010185558215620001ee579182015b82811115620001ee578251825591602001919060010190620001d1565b50620001fc92915062000200565b5090565b6200021d91905b80821115620001fc576000815560010162000207565b90565b61249c80620002306000396000f3fe608060405234801561001057600080fd5b50600436106101475760003560e01c80636352211e116100c8578063a22cb4651161008c578063c87b56dd11610066578063c87b56dd146105e8578063d31b332014610605578063e985e9c51461075557610147565b8063a22cb465146104d7578063b08faaee14610505578063b88d4fde1461052257610147565b80636352211e146103575780636c0360eb1461037457806370a082311461037c5780638aa0fdad146103a257806395d89b41146104cf57610147565b806323b872dd1161010f57806323b872dd146102855780632f745c59146102bb57806342842e0e146102e757806342966c681461031d5780634f6ccce71461033a57610147565b806301ffc9a71461014c57806306fdde0314610187578063081812fc14610204578063095ea7b31461023d57806318160ddd1461026b575b600080fd5b6101736004803603602081101561016257600080fd5b50356001600160e01b031916610783565b604080519115158252519081900360200190f35b61018f6107a6565b6040805160208082528351818301528351919283929083019185019080838360005b838110156101c95781810151838201526020016101b1565b50505050905090810190601f1680156101f65780820380516001836020036101000a031916815260200191505b509250505060405180910390f35b6102216004803603602081101561021a57600080fd5b503561083d565b604080516001600160a01b039092168252519081900360200190f35b6102696004803603604081101561025357600080fd5b506001600160a01b03813516906020013561089f565b005b61027361097a565b60408051918252519081900360200190f35b6102696004803603606081101561029b57600080fd5b506001600160a01b0381358116916020810135909116906040013561098b565b610273600480360360408110156102d157600080fd5b506001600160a01b0381351690602001356109e2565b610269600480360360608110156102fd57600080fd5b506001600160a01b03813581169160208101359091169060400135610a13565b6102696004803603602081101561033357600080fd5b5035610a2e565b6102736004803603602081101561035057600080fd5b5035610a80565b6102216004803603602081101561036d57600080fd5b5035610a9c565b61018f610aca565b6102736004803603602081101561039257600080fd5b50356001600160a01b0316610b2b565b610269600480360360408110156103b857600080fd5b8101906020810181356401000000008111156103d357600080fd5b8201836020820111156103e557600080fd5b8035906020019184600183028401116401000000008311171561040757600080fd5b91908080601f016020809104026020016040519081016040528093929190818152602001838380828437600092019190915250929594936020810193503591505064010000000081111561045a57600080fd5b82018360208201111561046c57600080fd5b8035906020019184600183028401116401000000008311171561048e57600080fd5b91908080601f016020809104026020016040519081016040528093929190818152602001838380828437600092019190915250929550610b93945050505050565b61018f610c81565b610269600480360360408110156104ed57600080fd5b506001600160a01b0381351690602001351515610ce2565b6102696004803603602081101561051b57600080fd5b5035610de7565b6102696004803603608081101561053857600080fd5b6001600160a01b0382358116926020810135909116916040820135919081019060808101606082013564010000000081111561057357600080fd5b82018360208201111561058557600080fd5b803590602001918460018302840111640100000000831117156105a757600080fd5b91908080601f016020809104026020016040519081016040528093929190818152602001838380828437600092019190915250929550610e0c945050505050565b61018f600480360360208110156105fe57600080fd5b5035610e6a565b61062b6004803603602081101561061b57600080fd5b50356001600160a01b0316611111565b6040518080602001806020018515151515815260200180602001848103845288818151815260200191508051906020019080838360005b8381101561067a578181015183820152602001610662565b50505050905090810190601f1680156106a75780820380516001836020036101000a031916815260200191505b50848103835287518152875160209182019189019080838360005b838110156106da5781810151838201526020016106c2565b50505050905090810190601f1680156107075780820380516001836020036101000a031916815260200191505b508481038252855181528551602091820191808801910280838360005b8381101561073c578181015183820152602001610724565b5050505090500197505050505050505060405180910390f35b6101736004803603604081101561076b57600080fd5b506001600160a01b03813581169160200135166112c3565b6001600160e01b0319811660009081526020819052604090205460ff165b919050565b60068054604080516020601f60026000196101006001881615020190951694909404938401819004810282018101909252828152606093909290918301828280156108325780601f1061080757610100808354040283529160200191610832565b820191906000526020600020905b81548152906001019060200180831161081557829003601f168201915b505050505090505b90565b6000610848826112f1565b6108835760405162461bcd60e51b815260040180806020018281038252602c815260200180612361602c913960400191505060405180910390fd5b506000908152600460205260409020546001600160a01b031690565b60006108aa82610a9c565b9050806001600160a01b0316836001600160a01b031614156108fd5760405162461bcd60e51b81526004018080602001828103825260218152602001806123e56021913960400191505060405180910390fd5b806001600160a01b031661090f611304565b6001600160a01b0316148061093057506109308161092b611304565b6112c3565b61096b5760405162461bcd60e51b81526004018080602001828103825260388152602001806122b46038913960400191505060405180910390fd5b6109758383611308565b505050565b60006109866002611383565b905090565b61099c610996611304565b8261138e565b6109d75760405162461bcd60e51b81526004018080602001828103825260318152602001806124066031913960400191505060405180910390fd5b610975838383611432565b6001600160a01b0382166000908152600160205260408120610a0a908363ffffffff61159016565b90505b92915050565b61097583838360405180602001604052806000815250610e0c565b610a39610996611304565b610a745760405162461bcd60e51b81526004018080602001828103825260308152602001806124376030913960400191505060405180910390fd5b610a7d8161159c565b50565b600080610a9460028463ffffffff61167516565b509392505050565b6000610a0d82604051806060016040528060298152602001612316602991396002919063ffffffff61169116565b60098054604080516020601f60026000196101006001881615020190951694909404938401819004810282018101909252828152606093909290918301828280156108325780601f1061080757610100808354040283529160200191610832565b60006001600160a01b038216610b725760405162461bcd60e51b815260040180806020018281038252602a8152602001806122ec602a913960400191505060405180910390fd5b6001600160a01b0382166000908152600160205260409020610a0d90611383565b336000908152600b602052604090206002015460ff1615610bfb576040805162461bcd60e51b815260206004820152600e60248201527f557365722068617320746f6b656e000000000000000000000000000000000000604482015290519081900360640190fd5b336000908152600b602090815260409091208351610c1b92850190612137565b50336000908152600b602090815260409091208251610c4292600190920191840190612137565b50336000818152600b60205260409020600201805460ff19166001179055600a54610c6d91906116a8565b600a5461097590600163ffffffff6117e216565b60078054604080516020601f60026000196101006001881615020190951694909404938401819004810282018101909252828152606093909290918301828280156108325780601f1061080757610100808354040283529160200191610832565b610cea611304565b6001600160a01b0316826001600160a01b03161415610d50576040805162461bcd60e51b815260206004820152601960248201527f4552433732313a20617070726f766520746f2063616c6c657200000000000000604482015290519081900360640190fd5b8060056000610d5d611304565b6001600160a01b03908116825260208083019390935260409182016000908120918716808252919093529120805460ff191692151592909217909155610da1611304565b60408051841515815290516001600160a01b0392909216917f17307eab39ab6107e8899845ad3d59bd9653f200f220920489ca2b5937696c319181900360200190a35050565b336000908152600b602090815260408220600301805460018101825590835291200155565b610e1d610e17611304565b8361138e565b610e585760405162461bcd60e51b81526004018080602001828103825260318152602001806124066031913960400191505060405180910390fd5b610e648484848461183c565b50505050565b6060610e75826112f1565b610eb05760405162461bcd60e51b815260040180806020018281038252602f8152602001806123b6602f913960400191505060405180910390fd5b60008281526008602090815260409182902080548351601f6002600019610100600186161502019093169290920491820184900484028101840190945280845260609392830182828015610f455780601f10610f1a57610100808354040283529160200191610f45565b820191906000526020600020905b815481529060010190602001808311610f2857829003601f168201915b505060095493945050505060026000196101006001841615020190911604610f6e5790506107a1565b80511561103f576009816040516020018083805460018160011615610100020316600290048015610fd65780601f10610fb4576101008083540402835291820191610fd6565b820191906000526020600020905b815481529060010190602001808311610fc2575b5050825160208401908083835b602083106110025780518252601f199092019160209182019101610fe3565b6001836020036101000a038019825116818451168082178552505050505050905001925050506040516020818303038152906040529150506107a1565b600961104a8461188e565b60405160200180838054600181600116156101000203166002900480156110a85780601f106110865761010080835404028352918201916110a8565b820191906000526020600020905b815481529060010190602001808311611094575b5050825160208401908083835b602083106110d45780518252601f1990920191602091820191016110b5565b6001836020036101000a03801982511681845116808217855250505050505090500192505050604051602081830303815290604052915050919050565b6001600160a01b0381166000908152600b6020908152604080832060028082015482548451601f600019600184811615610100029190910190931694909404938401879004870281018701909552828552606096879690958795949285019360ff169260038601928691908301828280156111cd5780601f106111a2576101008083540402835291602001916111cd565b820191906000526020600020905b8154815290600101906020018083116111b057829003601f168201915b5050865460408051602060026001851615610100026000190190941693909304601f81018490048402820184019092528181529599508894509250840190508282801561125b5780601f106112305761010080835404028352916020019161125b565b820191906000526020600020905b81548152906001019060200180831161123e57829003601f168201915b50505050509250808054806020026020016040519081016040528092919081815260200182805480156112ad57602002820191906000526020600020905b815481526020019060010190808311611299575b5050505050905093509350935093509193509193565b6001600160a01b03918216600090815260056020908152604080832093909416825291909152205460ff1690565b6000610a0d60028363ffffffff61198116565b3390565b6000818152600460205260409020805473ffffffffffffffffffffffffffffffffffffffff19166001600160a01b038416908117909155819061134a82610a9c565b6001600160a01b03167f8c5be1e5ebec7d5bd14f71427d1e84f3dd0314c0f7b2291e5b200ac8c7c3b92560405160405180910390a45050565b6000610a0d8261198d565b6000611399826112f1565b6113d45760405162461bcd60e51b815260040180806020018281038252602c815260200180612288602c913960400191505060405180910390fd5b60006113df83610a9c565b9050806001600160a01b0316846001600160a01b0316148061141a5750836001600160a01b031661140f8461083d565b6001600160a01b0316145b8061142a575061142a81856112c3565b949350505050565b826001600160a01b031661144582610a9c565b6001600160a01b03161461148a5760405162461bcd60e51b815260040180806020018281038252602981526020018061238d6029913960400191505060405180910390fd5b6001600160a01b0382166114cf5760405162461bcd60e51b81526004018080602001828103825260248152602001806122646024913960400191505060405180910390fd5b6114da838383610975565b6114e5600082611308565b6001600160a01b038316600090815260016020526040902061150d908263ffffffff61199116565b506001600160a01b0382166000908152600160205260409020611536908263ffffffff61199d16565b506115496002828463ffffffff6119a916565b5080826001600160a01b0316846001600160a01b03167fddf252ad1be2c89b69c2b068fc378daa952ba7f163c4a11628f55a4df523b3ef60405160405180910390a4505050565b6000610a0a83836119bf565b60006115a782610a9c565b90506115b581600084610975565b6115c0600083611308565b60008281526008602052604090205460026000196101006001841615020190911604156115fe5760008281526008602052604081206115fe916121b5565b6001600160a01b0381166000908152600160205260409020611626908363ffffffff61199116565b5061163860028363ffffffff611a2316565b5060405182906000906001600160a01b038416907fddf252ad1be2c89b69c2b068fc378daa952ba7f163c4a11628f55a4df523b3ef908390a45050565b60008080806116848686611a2f565b9097909650945050505050565b600061169e848484611aaa565b90505b9392505050565b6001600160a01b038216611703576040805162461bcd60e51b815260206004820181905260248201527f4552433732313a206d696e7420746f20746865207a65726f2061646472657373604482015290519081900360640190fd5b61170c816112f1565b1561175e576040805162461bcd60e51b815260206004820152601c60248201527f4552433732313a20746f6b656e20616c7265616479206d696e74656400000000604482015290519081900360640190fd5b61176a60008383610975565b6001600160a01b0382166000908152600160205260409020611792908263ffffffff61199d16565b506117a56002828463ffffffff6119a916565b5060405181906001600160a01b038416906000907fddf252ad1be2c89b69c2b068fc378daa952ba7f163c4a11628f55a4df523b3ef908290a45050565b600082820183811015610a0a576040805162461bcd60e51b815260206004820152601b60248201527f536166654d6174683a206164646974696f6e206f766572666c6f770000000000604482015290519081900360640190fd5b611847848484611432565b61185384848484611b74565b610e645760405162461bcd60e51b81526004018080602001828103825260328152602001806122326032913960400191505060405180910390fd5b6060816118b357506040805180820190915260018152600360fc1b60208201526107a1565b8160005b81156118cb57600101600a820491506118b7565b60608167ffffffffffffffff811180156118e457600080fd5b506040519080825280601f01601f19166020018201604052801561190f576020820181803683370190505b50859350905060001982015b831561197857600a840660300160f81b8282806001900393508151811061193e57fe5b60200101907effffffffffffffffffffffffffffffffffffffffffffffffffffffffffffff1916908160001a905350600a8404935061191b565b50949350505050565b6000610a0a8383611cf4565b5490565b6000610a0a8383611d0c565b6000610a0a8383611dd2565b600061169e84846001600160a01b038516611e1c565b81546000908210611a015760405162461bcd60e51b81526004018080602001828103825260228152602001806122106022913960400191505060405180910390fd5b826000018281548110611a1057fe5b9060005260206000200154905092915050565b6000610a0a8383611eb3565b815460009081908310611a735760405162461bcd60e51b815260040180806020018281038252602281526020018061233f6022913960400191505060405180910390fd5b6000846000018481548110611a8457fe5b906000526020600020906002020190508060000154816001015492509250509250929050565b60008281526001840160205260408120548281611b455760405162461bcd60e51b81526004018080602001828103825283818151815260200191508051906020019080838360005b83811015611b0a578181015183820152602001611af2565b50505050905090810190601f168015611b375780820380516001836020036101000a031916815260200191505b509250505060405180910390fd5b50846000016001820381548110611b5857fe5b9060005260206000209060020201600101549150509392505050565b6000611b88846001600160a01b0316611f87565b611b945750600161142a565b6060611cba630a85bd0160e11b611ba9611304565b88878760405160240180856001600160a01b03166001600160a01b03168152602001846001600160a01b03166001600160a01b0316815260200183815260200180602001828103825283818151815260200191508051906020019080838360005b83811015611c22578181015183820152602001611c0a565b50505050905090810190601f168015611c4f5780820380516001836020036101000a031916815260200191505b5095505050505050604051602081830303815290604052906001600160e01b0319166020820180516001600160e01b038381831617835250505050604051806060016040528060328152602001612232603291396001600160a01b038816919063ffffffff611fc016565b90506000818060200190516020811015611cd357600080fd5b50516001600160e01b031916630a85bd0160e11b1492505050949350505050565b60009081526001919091016020526040902054151590565b60008181526001830160205260408120548015611dc85783546000198083019190810190600090879083908110611d3f57fe5b9060005260206000200154905080876000018481548110611d5c57fe5b600091825260208083209091019290925582815260018981019092526040902090840190558654879080611d8c57fe5b60019003818190600052602060002001600090559055866001016000878152602001908152602001600020600090556001945050505050610a0d565b6000915050610a0d565b6000611dde8383611cf4565b611e1457508154600181810184556000848152602080822090930184905584548482528286019093526040902091909155610a0d565b506000610a0d565b600082815260018401602052604081205480611e815750506040805180820182528381526020808201848152865460018181018955600089815284812095516002909302909501918255915190820155865486845281880190925292909120556116a1565b82856000016001830381548110611e9457fe5b90600052602060002090600202016001018190555060009150506116a1565b60008181526001830160205260408120548015611dc85783546000198083019190810190600090879083908110611ee657fe5b9060005260206000209060020201905080876000018481548110611f0657fe5b600091825260208083208454600290930201918255600193840154918401919091558354825289830190526040902090840190558654879080611f4557fe5b6000828152602080822060026000199094019384020182815560019081018390559290935588815289820190925260408220919091559450610a0d9350505050565b6000813f7fc5d2460186f7233c927e7db2dcc703c0e500b653ca82273b7bfad8045d85a47081811480159061142a575050151592915050565b606061169e84846000856060611fd585611f87565b612026576040805162461bcd60e51b815260206004820152601d60248201527f416464726573733a2063616c6c20746f206e6f6e2d636f6e7472616374000000604482015290519081900360640190fd5b60006060866001600160a01b031685876040518082805190602001908083835b602083106120655780518252601f199092019160209182019101612046565b6001836020036101000a03801982511681845116808217855250505050505090500191505060006040518083038185875af1925050503d80600081146120c7576040519150601f19603f3d011682016040523d82523d6000602084013e6120cc565b606091505b509150915081156120e057915061142a9050565b8051156120f05780518082602001fd5b60405162461bcd60e51b8152602060048201818152865160248401528651879391928392604401919085019080838360008315611b0a578181015183820152602001611af2565b828054600181600116156101000203166002900490600052602060002090601f016020900481019282601f1061217857805160ff19168380011785556121a5565b828001600101855582156121a5579182015b828111156121a557825182559160200191906001019061218a565b506121b19291506121f5565b5090565b50805460018160011615610100020316600290046000825580601f106121db5750610a7d565b601f016020900490600052602060002090810190610a7d91905b61083a91905b808211156121b157600081556001016121fb56fe456e756d657261626c655365743a20696e646578206f7574206f6620626f756e64734552433732313a207472616e7366657220746f206e6f6e20455243373231526563656976657220696d706c656d656e7465724552433732313a207472616e7366657220746f20746865207a65726f20616464726573734552433732313a206f70657261746f7220717565727920666f72206e6f6e6578697374656e7420746f6b656e4552433732313a20617070726f76652063616c6c6572206973206e6f74206f776e6572206e6f7220617070726f76656420666f7220616c6c4552433732313a2062616c616e636520717565727920666f7220746865207a65726f20616464726573734552433732313a206f776e657220717565727920666f72206e6f6e6578697374656e7420746f6b656e456e756d657261626c654d61703a20696e646578206f7574206f6620626f756e64734552433732313a20617070726f76656420717565727920666f72206e6f6e6578697374656e7420746f6b656e4552433732313a207472616e73666572206f6620746f6b656e2074686174206973206e6f74206f776e4552433732314d657461646174613a2055524920717565727920666f72206e6f6e6578697374656e7420746f6b656e4552433732313a20617070726f76616c20746f2063757272656e74206f776e65724552433732313a207472616e736665722063616c6c6572206973206e6f74206f776e6572206e6f7220617070726f7665644552433732314275726e61626c653a2063616c6c6572206973206e6f74206f776e6572206e6f7220617070726f766564a26469706673582212202c2aec895efc7e172635e6a6bcf4147be28c0f562d0f99b9f33ef5dc9e8f2a1a64736f6c634300060b0033",
  "source": "pragma solidity >=0.6.6 <0.6.12;\n \nimport \"@openzeppelin/contracts/token/ERC721/ERC721.sol\";\nimport \"@openzeppelin/contracts/token/ERC721/ERC721Burnable.sol\";\n\ncontract UniqueUserTokens is ERC721, ERC721Burnable {\n    uint private tokensCreated;\n\n    struct UserInfo {\n        string userName;\n        string threadId;\n        bool created;\n        uint[] contentIds;\n    }\n\n    mapping(address => UserInfo) private _userInformation;\n    constructor() ERC721(\"Unique User Tokens\", \"UUT\") public {\n\n    }\n\n    function mint(string memory _userName, string memory _threadId) public {\n        require(!_userInformation[msg.sender].created, \"User has token\");\n\n        _userInformation[msg.sender].userName = _userName;\n        _userInformation[msg.sender].threadId = _threadId;\n        _userInformation[msg.sender].created = true;\n        _mint(msg.sender, tokensCreated);\n\n        tokensCreated.add(1);\n    }\n\n    function getUserTokenInfo(address _user)\n        public\n        view\n        returns(\n            string memory,\n            string memory,\n            bool,\n            uint[] memory\n        )\n    {\n        return (\n            _userInformation[_user].userName,\n            _userInformation[_user].threadId,\n            _userInformation[_user].created,\n            _userInformation[_user].contentIds\n        );\n    }\n\n    function createContent(uint _contentId) public {\n        _userInformation[msg.sender].contentIds.push(_contentId);\n    }\n}",
  "sourcePath": "/Users/veronicac/Desktop/projects/news-buff/News_Buff_V0.1/contracts/UniqueUserTokens.sol",
  "compiler": {
    "name": "solc",
    "version": "0.6.11+commit.5ef660b1.Emscripten.clang",
    "optimizer": true,
    "runs": 500
  },
  "schemaVersion": "2.3.3",
  "updatedAt": "2020-08-05T09:20:56.108Z"
}